:102533005389F043890153B5FB538EF7758AEA75C6
:092543008CCBD2A9D2AFD28C22BC
:10254C0053890F43891053B5F7538EEF758BEA758A
:09255C008DCBD2ABD2AFD28E229E
:0626620012253302254C95
:1021E00053B1BF53B2BF53B17F53B27F75985043C1
:1021F0008920438780438E1053C4DFAB07AA06A90A
:1022000005A8047F407E427D0F7C0012078FEF04FB
:09221000F404F58DD28ED299225E
:101BC8008F268E258D248C2353B1BF53B2BF53B1BA
:101BD8007F53B27F75985043878053C4F843C4201D
:101BE800AB26AA25A924A8237F407E427D0F7C002E
:101BF80012078FC374FF9FFF74FF9EFEE49DFDE4F0
:101C08009CFC78081208218FC6AB26AA25A924A80F
:101C1800237F407E427D0F7C0012078FC374FF9F95
:091C2800FF8FC543C408D29922C4
:101D63008F268E258D248C2353B1FB53B2FB53B3A3
:101D7300BF53B4BF75F850AB26AA25A924A8237F67
:101D8300407E427D0F7C0012078FC374FF9FFF7458
:101D9300FF9EFEE49DFDE49CFC78081208218FC69B
:101DA300AB26AA25A924A8237F407E427D0F7C0071
:101DB30012078FC374FF9FFF8FC543C408D2F92254
:05001E00D2ACD2AF22BC
:102565007F807E257D007C00121BC87F807E257DB7
:09257500007C00121D6302001E2F
:080003003099FDC2998F99228A
:0826530030F9FDC2F98F9A2253
:10257E00AE05EF14600804700AAF06020003AF0642
:04258E00122653229C
:10230F008B1D8A1E891FAC07EA494B6020AB1DAAA3
:10231F001EA91F1205DE6015AF04051FE51F700211
:0E232F00051E14F91205DEFD12257E80E02247
:0823F0008F258B268A2789281E
:1023F800E4FCECC395295017AB26AA27A9288C82A0
:0F2408007583001205F7FDAF2512257E0C80E3CA
:0124170022A2
:0219A5008F555C
:1019A700EA494B600312230FE4F55FE55FC3955CDB
:1019B7005048AB59AA5AA95B855F82758300120507
:1019C700F7C4540FFF1225CC8F60AB59AA5AA95BF5
:1019D700855F827583001205F7540FFF1225CCAC83
:1019E70007AD60AF5512257EAD04AF5512257EAD0C
:1019F7005DAF5512257E055F80B1E55E600E7D0DFA
:0C1A0700AF5512257E7D0AAF5512257EDA
:011A130022B0
:06224C008B088A09890AD3
:10225200751A00751B00751C0B8B618A6289638578
:102262001A64851B65851C667B017A00790112233D
:0C2272006B7B017A0079017F0102230FD1
:1022B00050535F4B310D0A0050535F4B320D0A00F3
:1022C00050535F4B330D0A00504C5F4B310D0A00E9
:1022D000504C5F4B320D0A00504C5F4B330D0A00DF
:07246600016700026800009D
:1025A60043B10853B2F743B11053B2EF43B12053CE
:0325B600B2DF226F
:1025B900E4FF2083010F208403430702208503439E
:0225C900070405
:0125CB0022ED
:08264A001225B9EF70027FFFB9
:012652002265
:101827007FFF7DFF12264ABFFF24C3E569942CE59D
:101837006894014007E5674430FD8017C3E5699464
:1018470002E5689400400CE5674410FD8005EF65EC
:101857006760098F67E4F568F56980380569E569A8
:1018670070020568640245687004AD678026E56903
:10187700B42C0CE568B40107E5674420FD8015E545
:1018870069B45E10E568B4010BE5674440FD75680F
:101897000175692CEDF4600F7E007F65EDFB7A0022
:0918A7007D027C00121AF07F01A1
:0118B0002215
:10152200EA494B70030215C99000021206EEFFE56C
:10153200F060030215C9EF24EE602424FE6031241A
:10154200F3604214605424FE6065241370797BFFBB
:101552007A2279B01208D27E007F657B0380207BDD
:10156200FF7A2279B81208D27E007F657B05800F50
:101572007BFF7A2279C01208D27E007F657B047AD3
:10158200007D03803D7BFF7A2279C81208D27E005B
:101592007F657B017A007D0480287BFF7A2279D0E7
:1015A2001208D27E007F657B017A007D0480137B66
:1015B200FF7A2279D81208D27E007F657B017A00F9
:0815C2007D047C00121AF022E6
:101A830053B1FD43B20253B3FD43B40253B3FB431B
:101A9300B40453B3DF43B420C291C292C295E4FFAE
:101AA300EF75F008A42416F582E43401F583E4F01D
:101AB300A3F0EF75F008A42410F582E43401F58354
:101AC300E4F0A3F0EF75F008A42412F582E43401E6
:101AD300F583E4F0A3F0EF75F008A42414F582E491
:0C1AE3003401F583E4F0A3F00FBF04B45D
:011AEF0022D4
:1011B800E4F523E52375F008A42414F582E434014A
:1011C800F583E0FEA3E0D39400EE94004051E523BC
:1011D80075F008A42414F582E43401F58374FFF54E
:1011E800F01206ADE52375F008A42412F582E43464
:1011F80001F583E0FEA3E0FFE52375F008A42414BD
:10120800F582E43401F583E0FCA3E06F7002EC6E34
:1012180060030212C2FBFDAF2312179A0212C2E545
:101228002375F008A42416F582E43401F583E0FE62
:10123800A3E0F44E700AFB7D01AF2312179A803A9F
:10124800E52375F008A42416F582E43401F583E05B
:10125800FEA3E0D39400EE9400405FE4FB7D01AF71
:101268002312179AE52375F008A42416F582E434AE
:1012780001F58374FFF5F01206ADE52375F008A4B7
:101288002412F582E43401F583E0FEA3E0FFE523B0
:1012980075F008A42410F582E43401F583E0FCA37A
:1012A800E02FFFEC3EFEE52375F008A42414F58238
:1012B800E43401F583EEF0A3EFF00523E523C394AE
:0812C8000450030211BB7F0A70
:0112D00022FB
:101E7C00EFD394045052EF75F008A42416F582E4C5
:101E8C003401F583E4F0A3EDF0EF75F008A4241011
:101E9C00F582E43401F583EAF0A3EBF0EF75F0087A
:101EAC00A42412F582E43401F583E527F0A3E52898
:101EBC00F0EF75F008A42414F582E43401F583E402
:091ECC00F0A3F0FBFD12179A22AD
:10179A00EFD394044003021826EF14601514601D59
:1017AA001460252403702AED6004D2918023C2912B
:1017BA00801FED6004D2928018C2928014ED6004FA
:1017CA00D295800DC2958009ED6004C2818002D253
:1017DA0081EB6048EF75F008A42416F582E4340121
:1017EA00F583E4F0A3F0EF75F008A42410F582E481
:1017FA003401F583E4F0A3F0EF75F008A42412F5A0
:10180A0082E43401F583E4F0A3F0EF75F008A42430
:0D181A0014F582E43401F583E4F0A3F0221C
:03000B000220A927
:1020A900C0E0C0F0C083C082C0D075D000C000C0FD
:1020B90001C002C003C004C005C006C007758AEA92
:1020C900758CCB121ED5D007D006D005D004D0030D
:1020D900D002D001D000D0D0D082D083D0F0D0E0CF
:0120E90032C4
:03001B0002265B5F
:07265B00758BEA758DCB328F
:0300230002202593
:10202500C0E0C0F0C083C082C0D075D000C000C081
:1020350001C002C003C004C005C006C00730980730
:10204500C298AF99122219D007D006D005D004D076
:1020550003D002D001D000D0D0D082D083D0F0D030
:02206500E03267
:0D000E00122601900161E0FF12251780F617
:1015CA002A2A2A2A2A2A2A2A2A2A2A2A2A2A2A2A71
:1015DA002A2A2A2A2A2A2A2A2A2A2A2A2A2A2A2A61
:1015EA002A2A2A2A2A2A2A0D0A004275696C6420A4
:1015FA0061743A202573202025730D0A004A756C00
:10160A0020313020323031380031303A35303A31F9
:10161A00310046575F5645523A312E25640D0A006D
:10162A002D2D2D2D2D2D2D2D2D2D2D2D2D2D2D2DE0
:10163A002D2D2D2D2D2D2D2D2D2D2D2D2D2D2D2DD0
:10164A002D2D2D2D2D2D2D2D0D0A000D0A456E74D3
:10165A0072792073797374656D2052756E20737474
:08166A00617475732E0D0A0076
:10246D00104501FF18270AFF11B80AFF0BCC64FFB6
:02247D00266EC9
:102168007BFF7A1579CA1208D27534FF7535167552
:1021780036077537FF7538167539137BFF7A157969
:10218800F41208D27BFF7A16791C75340075350174
:0C2198001208D27BFF7A16792A0208D2C6
:0F2601009001627401F0900161F0900163F0228A
:10251700EF24FE60080470051221A48003121F2B0C
:0C252700900162E0900161F0E4A3F0225A
:1021A4001225651226401225F07B017A017954121A
:1021B40026357E007F657C007D737B14121FD2124E
:1021C40021681225DE1226627E007F65E4FBFA7D1B
:0C21D40001FC121AF09001627402F0226B
:101F2B007BFF7A1679551208D2900163E09001621B
:101F3B00F0900163E0FF900162E06F70367E007FEE
:101F4B00657C007D6F1212D1EF702090006FE0FE68
:101F5B00A3E0FFEE700EEF14700AE4900160F074D2
:101F6B0002F080077E007F6F1220EA120F57121AC1
:041F7B001480BE22EE
:1020EA008E238F24E5244523603585248285238326
:1020FA00E0FEA3E0FFEE7027EF24FD6010146016E7
:10210A002402701BAA23A9247B01021522AA23A94F
:10211A00247B01020026AA23A9247B011217072285
:101ED500E4F522E52225E025E02445F8E6FFF46057
:101EE5003BEFD39400403516E67031E52225E02519
:101EF500E02446F8860308E6FA08E64A4B601DE545
:101F05002225E025E02446F808E6FA08E6F9120855
:101F150034E52225E025E02445F8A6070522E5223B
:051F2500C3940440AE6E
:011F2A002294
:03266E007F642264
:101F7F00095B2562645D20544F3A25640D0A000900
:101F8F005B2562645D20506F73743A206D736769CF
:101F9F00643A256420706172616D3A25640D0A0000
:101FAF00090954696D6572556E6974416464206DD9
:101FBF00736769643A256420706172616D3A2564B4
:031FCF000D0A00F8
:100BCC00E4F52390015FE0FFE523C39F4003020D92
:100BDC00C4E52375F00BA4245BF582E43401F583A2
:100BEC00E0FEA3E0FFD39400EE94004064E523758F
:100BFC00F00BA4245EF582E43401F583E07003026B
:100C0C000DBF7C007D0A120658ED4C702B852334E9
:100C1C00E52375F00BA4245BF582E43401F583E045
:100C2C00FEA3E0FF7C007D0A1206588E358F367BC2
:100C3C00FF7A1F797F1208D2E52375F00BA4245B91
:100C4C00F582E43401F58374FFF5F01206AD020D64
:100C5C00BF7BFF7A1F798EE52375F00BA4245DF51D
:100C6C0082E43401F583E0F534E52375F00BA4241C
:100C7C0057F582E43401F583E0F535A3E0F536E56C
:100C8C002375F00BA42459F582E43401F583E0F5C7
:100C9C0037A3E0F5381208D2E52375F00BA42454E1
:100CAC00F582E43401F583A3E0FAA3E0AE02FFC0C1
:100CBC0006C007E52375F00BA42457F9740135F031
:100CCC00FA7B01782D7C007D007E007F041205B834
:100CDC00D007D006121B5D90015FE0FF14652370F6
:100CEC0003020DB7E0FE75F00BA42452F582E43438
:100CFC0001F583E0FDE52375F00BA4245DF582E49A
:100D0C003401F583EDF0EE75F00BA42449F582E483
:100D1C003401F583E0FBA3E0FAA3E0F9E52375F0D9
:100D2C000BA42454F582E43401F583EBF0A3EAF030
:100D3C00A3E9F0EF75F00BA4244CF582E43401F533
:100D4C0083E0FCA3E0FDE52375F00BA42457F582AA
:100D5C00E43401F583ECF0A3EDF0EF75F00BA42473
:100D6C004EF582E43401F583E0FEA3E0FFE5237544
:100D7C00F00BA42459F582E43401F583EEF0A3EFD3
:100D8C00F090015FE075F00BA42450F582E434017F
:100D9C00F583E0FEA3E0FFE52375F00BA4245BF5DF
:100DAC0082E43401F583EEF0A3EFF090015FE06094
:0A0DBC000214F00523020BCF7F0A9A
:010DC600220A
:0B263500EA494B6005E490015FF022D1
:10108A00EA494B70030211B7E4FF90015FE0FEEFFB
:10109A00C39E40030211B7EF75F00BA4245DF582DD
:1010AA00E43401F583E06D60030211B3C2AFEE14BC
:1010BA006F70030211A990015FE075F00BA424522E
:1010CA00F582E43401F583E0FCEF75F00BA4245DAE
:1010DA00F582E43401F583ECF0EE75F00BA42449B3
:1010EA00F582E43401F583E0FBA3E0FAA3E0F9EF2B
:1010FA0075F00BA42454F582E43401F583EBF0A3D4
:10110A00EAF0A3E9F090015FE0FE75F00BA4244C2D
:10111A00F582E43401F583E0FAA3E0FBEF75F00B06
:10112A00A42457F582E43401F583EAF0A3EBF0EE48
:10113A0075F00BA4244EF582E43401F583E0FAA39A
:10114A00E0FBEF75F00BA42459F582E43401F58332
:10115A00EAF0A3EBF090015FE0FE75F00BA42450D7
:10116A00F582E43401F583E0FAA3E0FBEF75F00BB6
:10117A00A4245BF582E43401F583EAF0A3EBF0EEF4
:10118A0075F00BA42453F582E43401F583E0FEEFF5
:10119A0075F00BA4245EF582E43401F583EEF09039
:0D11AA00015FE0600214F0D2AF0F0210945C
:0111B7002215
:080DC7008B258A2689278D285F
:100DCF00AB2CAA2DA92E1206C3F53585F034900051
:100DDF00021206EEF53785F0367BFF7A1F79AF12D8
:100DEF0008D2E526452745257003020F56E52D4508
:100DFF002E452C7003020F56C2AFE4FF90015FE047
:100E0F00FEEFC39E4003020EABEF75F00BA4245D03
:100E1F00F582E43401F583E06528707CEF75F00B03
:100E2F00A42454F582E43401F583E529F0A3E52ADF
:100E3F00F0A3E52BF0AB2CAA2DA92E1206C3FDAC07
:100E4F00F0EF75F00BA42457F582E43401F583EC31
:100E5F00F0A3EDF09000021206EEFDACF0EF75F08E
:100E6F000BA42459F582E43401F583ECF0A3EDF0E3
:100E7F00EF75F00BA4245BF582E43401F583E52FC5
:100E8F00F0A3E530F0EF75F00BA4245EF582E434A7
:100E9F0001F5837401F080040F020E0BEEC3940171
:100EAF004003020F5490015FE0FE6F6003020F5486
:100EBF00EE75F00BA4245DF582E43401F583E5288B
:100ECF00F0EE75F00BA42454F582E43401F583E5BC
:100EDF0029F0A3E52AF0A3E52BF0AB2CAA2DA92E20
:100EEF001206C3FFAEF090015FE0FD75F00BA42476
:100EFF0057F582E43401F583EEF0A3EFF090000292
:100F0F001206EEFFAEF0ED75F00BA42459F582E456
:100F1F003401F583EEF0A3EFF0ED75F00BA4245B35
:100F2F00F582E43401F583E52FF0A3E530F0ED759C
:100F3F00F00BA4245EF582E43401F5837401F09084
:070F4F00015FE004F0D2AFE6
:010F56002278
:10248B00EA494B601F90015FE0FFEDC39F5015C2FF
:10249B00AFED75F00BA4245EF582E43401F583E512
:0524AB0029F0D2AF2270
:1022E000EA494B7002FF2290015FE0FFEDC39F407F
:1022F000037F0022ED75F00BA4245BF582E434012A
:0F230000F583E0FEA3E04E60037F01227F002201
:1023C600EA494B7003FEFF2290015FE0FFEDC39FD9
:1023D6004004E4FEFF22ED75F00BA4245BF582E4D5
:0A23E6003401F583E0FEA3E0FF22BE
:101FD2008C238D248B25EF4E70037F0122E524454F
:101FE2002370037F0222E52570037F0322900065A0
:101FF2007401F0A3E523F0A3E524F0E52575F004D0
:10200200A42524FFE5F03523FAA907A37401F0A360
:10201200EAF0A3E9F0E4A3F0A3F0A3F0A3E525F02E
:032022007F00221A
:101AF0008A258B26EF4E70037F012290006EE0FF57
:101B000090006DE0C39F505290006BE0C39F400275
:101B1000E4F0900065E0FBA3E0FAA3E0F990006B2D
:101B2000E0FF75F004A4F58285F083EC8DF01207D8
:101B300026EF75F004A429F9EA35F0FA900002E5E1
:101B4000258526F012072690006BE004F0C2AF90C6
:0D1B5000006DE004F0D2AF7F00227F022282
:101B5D00EF4E70037F012290006EE0FF90006DE06C
:101B6D00C39F505490006BE0C39F4002E4F090007F
:101B7D0065E0FBA3E0FAA3E0F990006BE0FF75F0E0
:101B8D0004A4F58285F083E52D852EF0120726EF4E
:101B9D0075F004A429F9EA35F0FA900002E52F85D5
:101BAD0030F012072690006BE004F0C2AF90006D8C
:0B1BBD00E004F0D2AF7F00227F022284
:1012D1008C238D24EF4E6004EF4E70037F0122E5D5
:1012E10024452370037F022290006DE0D3940050C7
:1012F100030213A2A3E0FF90006CE09F4002E4F020
:10130100900065E0FBA3E0FAA3E0F990006CE075C2
:10131100F004A4F58285F0831206EEFF8524828510
:101321002383E5F0F0A3EFF090006CE075F004A4E6
:10133100FFE92FF9EA35F0FA9000021206EEFF8577
:101341002482852383A3A3E5F0F0A3EFF090006549
:10135100E0FBA3E0FAA3E0F990006CE0FF75F00474
:10136100A4F58285F0831206EEFD90006FE5F0F0A2
:10137100A3EDF0EF75F004A4FFE92FF9EA35F0FAD7
:101381009000021206EEFF900071E5F0F0A3EFF07D
:1013910090006CE004F0C2AFA3E014F0D2AF7F0084
:0413A100227F032282
:0C261D00EF4E7002FF2290006DE0FF22E3
:0C262900EF4E7002FF2290006EE0FF22D6
:0A264000E4900144F0A3F0A3F0229F
:10221900900146E0C3941440037F0122900144E0F9
:10222900C394144002E4F0900144E0FE04F07430D9
:102239002EF582E43401F583EFF0900146E004F0D5
:032249007F0022F1
:10227E00900146E070037F0122900145E0C3941463
:10228E004002E4F0900145E0FF04F074302FF58237
:10229E00E43401F583E0120624900146E014F07F49
:0222AE0000220C
:06266800900146E0FF2294
:0624D3008B258A268927F3
:1024D900E4FFFEEEC39D5013AB25AA26A9278E82E1
:0B24E9007583001205F72FFF0E80E83E
:0124F40022C5
:1025CC00EFD39409EF50052430FE80032437FEAF7F
:0125DC0006F8
:0125DD0022DB
:10193400EFC39430400CEFD39439500674D02FFF8A
:101944008022EFC39441400CEFD394465006EF2419
:10195400C9FF8010EFC39461400AEFD3946650042A
:10196400EF24A9FFEF540FC454F0FFEDC3943040AB
:101974000CEDD39439500674D02DFD801EEDC39424
:10198400414008EDD394465002800CEDC39461406D
:101994000AEDD394665004ED24A9FDED540F4207DB
:0119A4002220
:062399008B238A24892534
:10239F00E4FFFEE94A4B700122E4FEFFAB23052563
:1023AF00E525AA247002052414F91205DE60070F33
:0623BF00BF00010E80E6E4
:0123C50022F5
:0613A5008B298A2A892B26
:1013AB008B318A328933852C34852D35852E36E960
:1013BB004A4B6008E52E452D452C70077B007A00C3
:1013CB00790022D3853583853682E5339582E532E4
:1013DB0095834019E5362530F9E535352FFA8A83A3
:1013EB008982D3E5339582E53295834038E4F5372E
:1013FB00F538C3E5389530E537952F5067AB34AAF0
:10140B0035A9368538828537831205F7AB31AA3279
:10141B00A9338538828537831206360538E538704F
:10142B00D1053780CD852F37853038D3E5389400FB
:10143B00E5379400402EAB34AA35A936E53824FFA6
:10144B00FFE53734FFFE8F82F5831205F7AB31AA28
:10145B0032A9338F828E83120636E538153870CB5E
:0A146B00153780C7AB29AA2AA92B68
:011475002254
:1016720038616856485630775A487655465650462D
:10168200312E302E3000574946495F52455345545A
:101692000D0A00574946495F534D4152545F434F2B
:1016A2004E4649470D0A00574946495F41500D0AC7
:1016B20000574946495F55504C4F41440D0A00536B
:1016C2004D4152545F434F4E4649475F5354415434
:1016D200450D0A0041505F53544154450D0A0057CD
:1016E2004946495F4E4F545F434F4E4E4543544522
:1016F200440D0A00574946495F434F4E4E454354F5
:0517020045440D0A0042
:0B247F004400C4010102014100C30041
:1025F00090010C74FFF0A3F0A37401F0A3F0022388
:012600003D9C
:032671007F0222C3
:0224F500AE0730
:1024F700122671E4FDEDC39F5013ED25E024C4F5CA
:0F25070082E43400F583E06E60030D80E8AF05D9
:0125160022A2
:041C99008E258F26DF
:101C9D00E52645257002FF22752700752803ED24E2
:101CAD00FE601C04704A852682852583E0600875D8
:101CBD002900752A038017752900752A04800F8560
:101CCD002682852583E06028752900752A057E000A
:101CDD007F65C006C007782D7C007D007B007A00F3
:101CED0079277E007F041205B8D007D006121B5D40
:021CFD007F0165
:011CFF0022C2
:10233D00E49000E6F0A3F09000C87455F0A374AAE1
:10234D00F0E4A3F0900108F0A3F09000EA7455F0CA
:0E235D00A374AAF0E4A3F090010AF0A3F0220A
:100F57007B017A01794712227EEF600302108990A4
:100F670000E7E0B409004003021080900F79F828E9
:100F77002873020F94020FA5020FB5020FC8020FC4
:100F8700D7020FE602108002102D02105F90014772
:100F9700E0645560030210899000E704F022900195
:100FA70047E0B4AA079000E77402F022800D900191
:100FB70047E070079000E77403F022E49000E7F041
:100FC70022900147E09000CBF09000E77404F022F4
:100FD700900147E09000CCF09000E77405F0229074
:100FE7000147E09000CDF0FD9000CCE0FEED7C00E5
:100FF7002400FFEC3EFE9000E8F0A3EFF0D3941836
:10100700EE940050119000E8E07002A3E09000E732
:1010170060427407F022E49000E7F09000E6F09059
:1010270000E8F0A3F022900147E0FF9000E6E0FE21
:1010370004F074CE2EF582E43400F583EFF09000CF
:10104700E6E0FFD39000E9E09F9000E8E0940050CD
:10105700319000E77408F0227B017A0079C890008C
:10106700E6E02406FD1224D3900148EFF0900147F3
:10107700E0B50703121C318000E49000E7F0900010
:02108700E6F091
:011089002244
:101C31009000CBE0B40900505E901C41F828287355
:101C4100021C5C021C63021C6A021C6E021C7A02EA
:101C51001C7F021C86021C98021C90122418E4FFAF
:101C610080321225927F01802B7F0280279000CE47
:101C7100E090010CF07F03801B90010E8003900126
:101C81000F7401F02212212A121E217F07800512F2
:081C91001E217F07121DC32272
:102418009001497401F09000C3E07B017A0079C310
:10242800900149700CE0FD12243F9000C37401F044
:0624380022E0FD12243F2A
:01243E00227B
:102592007BFF7A167972122399AD077BFF7A16793F
:0425A2007202243F5E
:10212A00E4F5239000E6E0FFE523C39F502F74D027
:10213A002523F582E43400F58375240074D1252320
:10214A00F582E43400F583E042247E007FCE121843
:0D215A00B1E52424042523F523052380C6C8
:012167002255
:0418B100AD07AC06CD
:1018B500E490014EF0ED4C7003E0FF228D828C83A5
:1018C500E0F9900149F08D828C83A3E090014BF003
:1018D5008D828C83A3A3E0FE8D828C83A3A3A3E0DA
:1018E5007A002400FFEA3E90014CF0A3EFF0ED24CE
:1018F50004FFE43CAB07FAAF011224F590014AEF6F
:10190500F025E024C5F582E43400F583E0FF90017D
:101915004BE0FEEFB50612AF03AE02900149E0FDC4
:0E19250090014CA3E0FB021C9990014EE0FFE4
:011933002291
:102067008E258F26E526452560378526828525839B
:10207700EDF0A37401F0852682852583A3A3E4F000
:10208700852682852583A3A3A304F0EB60047F0143
:1020970080027F00E5262404F582E43525F583EFE9
:0220A700F02225
:101E2100E4900153F0900160E030E0117E017F49C0
:101E31007B017D011220679001537405F0900160D0
:101E4100E030E1117E017F49E4FB7D0112206790C2
:101E510001537405F0900153E02449F582E4340103
:101E6100AF82FEE4FB7D02122067900153E024055E
:0B1E7100F00B7A017949E0FD02243FEC
:10243F008B258A2689278D288B2C8A2D892E752FFF
:10244F00008528307B017A0079F01213A590010ADC
:07245F00E4F0A3E528F022E0
:021DC300AB076C
:101DC50090010AA3E02406900149F09000EDEBF0A4
:101DD50090010AE09000EEF090010AA3E09000EF78
:101DE500F07B017A0079EA900149E0FD04F01224C4
:101DF500D390010AE0FCA3E024F0F58274003CF5E1
:101E050083EFF07B017A0079EA900149E0F529E456
:0B1E1500FF1223F0E490010AF0A3F09C
:011E2000229F
:101707009000021206EEFFE5F06003021799EF144E
:101717006023146045146069240370767BFF7A1692
:1017270079881208D2E490010EF0FBFAF9FD122431
:0E1737003F7F04805A7BFF7A1679951208D204
:10174500E4900147F090010CF090010FF07B017AD5
:0A1755000179477D0112243F7F0552
:0B175F0080357BFF7A1679A91208D2B2
:10176A009001487401F090010CF0E490010FF07BB5
:0C177A00017A0179487D0112243F7F05AF
:10178600800E7BFF7A1679B31208D2121E217F07CC
:04179600121DC3223B
:101A140090010DE0FF90010CE0FE6F6061A3EEF019
:101A240090010C14601D1460341460402403704E43
:101A34007BFF7A1679C11208D27527007528027BBC
:101A44000280117BFF7A1679D61208D275270075A9
:101A5400280A7B0A7A007DFF7F03021E7C7BFF7AC3
:101A64001679E11208D27B017D01800D7BFF7A1685
:0F1A740079F61208D27B01E4FD7F0312179A2244
:101D000057494E444F575F4F50454E494E470D0A75
:101D10000057494E444F575F434C4F53494E470D70
:101D20000A0057494E444F575F4F50454E45440DAA
:101D30000A0057494E444F575F434C4F5345440D9B
:101D40000A0057494E444F575F50415553450D0ABD
:101D500000556E50617573650D0A005061757365AD
:031D60000D0A0069
:0D26100053B1FE43B20153B3FE43B40122A7
:1025DE001225A6121A83122610C295D281D290C24B
:0225EE00802249
:0524B000F07D03E4FFD4
:1024B500EF701AED24FE600C14600E2402700EC23B
:0E24C50090C28022D290D28022C290D2802279
:10002600EA494B70030204E79000021206EEFFE570
:10003600F060030204E7EF14700302034814700330
:1000460002037924FE70030201CE1470030203AB8F
:10005600147003020451240360030204E77BFF7A51
:100066001D79001208D2900160E0FF30E50302041A
:10007600E7EF20E40302010330E2157D01E4FF12FD
:1000860024B57B017A017954752901E41D12248B6C
:10009600900160E030E34C7B017A017954E4FD1273
:1000A60023C6C374C89FFFE49EFE900147F0A3EFEA
:1000B600F0A3E4F0A37403F0A3E4F0A304F0F5299D
:1000C600752A00752B65F52C752D01752E498E2F19
:1000D6008F30FB7A017954E4FD120DC77D01E4FFF0
:1000E6001224B5E4900160F07404F07B01E4FD7F16
:1000F6000112179A7B017D01E4FF02026E900160F6
:10010600E0FF20E10620E3030204E7900160E0300F
:10011600E13F900147E4F0A374C8F0A3E4F0A374B0
:1001260003F0A3E4F0A304F0F529752A00752B6506
:10013600F52C752D01752E49752F007530C8FB7A83
:10014600017954E4FD120DC77D01E4FF1224B58048
:100156005D7B017A017954E4FD1223C6C374C89FFE
:10016600900165F0E49E900164F0900147E4F0A3ED
:10017600740AF0A3E4F0A37403F0A3E4F0A37406F6
:10018600F0752901752A00752B65752C01752D01F1
:10019600752E49752F0075300A7B017A017954E472
:1001A600FD120DC71224B1900160E04420F0E490E6
:1001B6000160F07404F07B01E4FD7F0112179A7B65
:1001C600017D01E4FF02044E7BFF7A1D79111208BE
:1001D600D2900160E0FF30E5030204E7EF20E4037C
:1001E60002027A30E3157D02E4FF1224B57B017A20
:1001F600017954752901E4FD12248B900160E030E9
:10020600E2507B017A017954E4FD1223C6C374C817
:100216009FFFE49EFE900147F0A3EFF0A3E4F0A356
:100226007403F0A3E4F0A37402F0752901752A00A3
:10023600752B65752C01752D01752E498E2F8F3006
:100246007B017A017954E4FD120DC77D02E4FF12A9
:1002560024B5E4900160F07408F07B01E4FDFF1220
:10026600179A7B017D017F0112179A7B01E4FD7FBE
:100276000202044E900160E0FF20E00620E2030245
:1002860004E7900160E030E043900147E4F0A37496
:10029600C8F0A3E4F0A37403F0A3E4F0A37402F09F
:1002A600752901752A00752B65752C01752D01754B
:1002B6002E49752F007530C87B017A017954E4FD0B
:1002C600120DC77D02E4FF1224B5805D7B017A0121
:1002D6007954E4FD1223C6C374C89F900165F0E407
:1002E6009E900164F0900147E4F0A3740AF0A3E441
:1002F600F0A37403F0A3E4F0A37406F07529017566
:100306002A00752B65752C01752D01752E49752FE3
:100316000075300A7B017A017954E4FD120DC7128B
:1003260024B1900160E04420F0E4900160F074088C
:10033600F07B01E4FDFF12179A7B017D017F01022C
:10034600044E7BFF7A1D79221208D2E4900160F0F8
:10035600041224B07E007F657B037A000D7C0012B8
:100366001AF07B01E4FDFF12179A7B01E4FD7F0181
:1003760002044E7BFF7A1D79321208D2E4900160A6
:10038600F074021224B07E007F657B037A000D7C38
:1003960000121AF07B01E4FDFF12179A7B01E4FDBF
:1003A6007F0102044E7BFF7A1D79421208D290012A
:1003B60060E030E44F7BFF7A1D79511208D290013C
:1003C60060E0FF20E20330E32CEF30E20C7D01E435
:1003D600FF1224B57B01E4800B7D02E4FF1224B5F5
:1003E6007B011D0F12179A7B017A01795475290139
:1003F600E4FD12248B900160E054EFF07B01E4FDF4
:100406007F028044900160E0FF20E20620E30302C1
:1004160004E77BFF7A1D795B1208D2900160E04405
:10042600101224B07B017A017954E4F529FD1224D7
:100436008B7B017D017F0212179A7B01E4FDFF127F
:10044600179A7B01E4FD7F0102179A900160E02074
:10045600E20620E3030204E0900164E0FFA3E090DB
:100466000147CFF0A3EFF0A3E4F0A37403F09001EB
:1004760060E090014B30E22EE4F0A304F0F529751C
:100486002A00752B65F52C752D01752E49900147AF
:10049600E0F52FA3E0F5307B017A017954E4FD12F3
:1004A6000DC77D01802FE4F0A37402F07529017554
:1004B6002A00752B65752C01752D01752E49900145
:1004C60047E0F52FA3E0F5307B017A017954E4FD8E
:1004D600120DC77D02E4FF1224B5900160E054DFDF
:0104E600F025
:0104E70022F2
:0300000002147671
:1014760075C7AA75C75575FD5A75C7AA75C7557537
:10148600FDA5787FE4F6D8FD9000007FFF7E03E49B
:0C149600F0A3DFFCDEFA7581690214DDB2
:1014A20002000EE493A3F8E493A34003F68001F252
:1014B20008DFF48029E493A3F85407240CC8C3334B
:1014C200C4540F4420C8834004F456800146F6DF1A
:1014D200E4800B0102040810204080902466E47E20
:1014E200019360BCA3FF543F30E509541FFEE4930F
:1014F200A360010ECF54C025E060A840B8E493A3D6
:10150200FAE493A3F8E493A3C8C582C8CAC583CA00
:10151200F0A3C8C582C8CAC583CADFE9DEE780BEB8
:01248A000051
:1004E800E709F608DFFA8046E709F208DFFA803EF6
:1004F80088828C83E709F0A3DFFA8032E309F608E3
:10050800DFFA8078E309F208DFFA807088828C834A
:10051800E309F0A3DFFA806489828A83E0A3F608FE
:10052800DFFA805889828A83E0A3F208DFFA804CD8
:1005380080D280FA80C680D4806980F280338010AF
:1005480080A680EA809A80A880DA80E280CA803318
:1005580089828A83ECFAE493A3C8C582C8CCC58390
:10056800CCF0A3C8C582C8CCC583CCDFE9DEE78060
:100578000D89828A83E493A3F608DFF9ECFAA9F0DF
:10058800EDFB2289828A83ECFAE0A3C8C582C8CC35
:10059800C583CCF0A3C8C582C8CCC583CCDFEADE4E
:1005A800E880DB89828A83E493A3F208DFF980CCB0
:1005B80088F0EF60010E4E60C388F0ED2402B404A9
:1005C8000050B9F582EB2402B4040050AF23234550
:0605D80082239005387338
:1005DE00BB010689828A83E0225002E722BBFE021B
:0905EE00E32289828A83E493224E
:1005F700BB010CE58229F582E5833AF583E02250B9
:1006070006E92582F8E622BBFE06E92582F8E22202
:0D061700E58229F582E5833AF583E493221C
:10062400BB010689828A83F0225002F722BBFE01B5
:02063400F322AF
:10063600F8BB010DE58229F582E5833AF583E8F0FA
:10064600225006E92582C8F622BBFE05E92582C8A6
:02065600F2228E
:10065800BC000BBE0029EF8DF084FFADF022E4CC86
:10066800F875F008EF2FFFEE33FEEC33FCEE9DEC4F
:10067800984005FCEE9DFE0FD5F0E9E4CEFD22ED95
:10068800F8F5F0EE8420D21CFEADF075F008EF2FDF
:10069800FFED33FD4007985006D5F0F222C398FDD0
:0506A8000FD5F0EA226D
:1006AD00C5F0F8A3E028F0C5F0F8E58215827002D8
:0606BD001583E038F02275
:1006C300BB010A89828A83E0F5F0A3E02250068702
:1006D300F009E71922BBFE07E3F5F009E3192289C4
:0B06E300828A83E493F5F074019322F7
:1006EE00BB0110E58229F582E5833AF583E0F5F04A
:1006FE00A3E0225009E92582F886F008E622BBFE27
:10070E000AE92582F8E2F5F008E222E5832AF5836C
:08071E00E993F5F0A3E9932231
:10072600F8BB0111E58229F582E5833AF583E8F005
:10073600E5F0A3F0225009E92582C8F608A6F022C2
:0D074600BBFE09E92582C8F2E5F008F222A9
:1007530075F008758200EF2FFFEE33FECD33CDCC5D
:1007630033CCC58233C5829BED9AEC99E5829840E0
:100773000CF582EE9BFEED9AFDEC99FC0FD5F0D6BD
:10078300E4CEFBE4CDFAE4CCF9A88222B800C1B9E7
:100793000059BA002DEC8BF084CFCECDFCE5F0CB25
:1007A300F97818EF2FFFEE33FEED33FDEC33FCEB5E
:1007B30033FB10D703994004EB99FB0FD8E5E4F919
:1007C300FA227818EF2FFFEE33FEED33FDEC33FC06
:1007D300C933C910D7059BE99A4007EC9BFCE99AFA
:1007E300F90FD8E0E4C9FAE4CCFB2275F010EF2F3F
:1007F300FFEE33FEED33FDCC33CCC833C810D7073F
:100803009BEC9AE899400AED9BFDEC9AFCE899F879
:0E0813000FD5F0DAE4CDFBE4CCFAE4C8F9220C
:10082100E8600FECC313FCED13FDEE13FEEF13FFB5
:03083100D8F122D9
:060834008A838982E4734F
:10087000E5402434F8E60540227831300702783428
:10088000E475F00112083A0205DE2000EB7F2ED25B
:10089000008018EF540F2490D43440D4FF30040B60
:1008A000EF24BFB41A0050032461FFE54160021534
:1008B000410544E5447002054330070D7831E47585
:1008C000F00112083AEF0206240226537403D207FD
:1008D0008003E4C207F5408B318A328933E4F54165
:1008E000F543F544E54160077F201208AB80F575BC
:1008F00042FFC201C200C202C203C205C206C20850
:10090000120879FF700D3007057F001208BCAF4454
:10091000AE4322B4255FC2D5C204120879FF24D0A9
:10092000B40A00501A75F00A784130D50508B6FFB0
:100930000106C6A426F620D5047002D20380D9246D
:10094000CFB41A00EF5004C2E5D204020ABCD201AF
:1009500080C6D20080C0D20280BCD2D580BAD20577
:1009600080B47F201208AB2002077401B54100401B
:10097000F1120870FF1208AB0208E4D208D2068018
:1009800095120870FB120870FA120870F94A4B7041
:1009900006798D7A0B7BFF20022EE541602A7E00CE
:1009A0008E827583001205F760060EEE654270F0C8
:1009B000C2D5EBC0E0EAC0E0E9C0E0EE120B03D024
:1009C000E0F9D0E0FAD0E0FB1205DEFF60AAEBC050
:1009D000E0EAC0E0E9C0E01208ABD0E02401F9D0C1
:1009E000E03400FAD0E0FBE5420460DCD542D98077
:1009F000877BFF7A0A79FFD202809C791080027986
:100A000008C206C2088008D2D5790A8004790AC2D1
:100A1000D5E542047002F542E4FAFDFEFF120870CB
:100A2000FC7B08200113120870FD7B1030000A12B5
:100A30000870FE120870FF7B20EC3382D592D550EF
:100A400013C3E43000069FFFE49EFEE42001039DF3
:100A5000FDE49CFCE4CBF8C201EC700CCFCECDCC15
:100A6000E824F8F870F38017C3EF33FFEE33FEEDA0
:100A700033FDEC33FCEB33FB994002FB0FD8E9EB81
:100A8000300105F8D0E0C448B201C0E00AEC4D4E98
:100A90004F78207B0070C2EAB5420040BCC0E01233
:100AA0000B05D0F0D0E0200104C4C0E0C4B201C006
:100AB000F0120894D0F0D5F0EB0208E412084A09CD
:100AC000815309FB5809524C094E4209FF4F0A074E
:0F0AD000440A07490967430A0D5509F14609F120
:100ADF004509F1470BAD5009562D095A2E097D2BAB
:100AEF00095E23097B200B962A0916480000097519
:100AFF003F3F3F00790AA2D5200314300509B910F2
:100B0F00020404B9080104A2D520060250010420F2
:100B1F0002689202B541005034C0E07F20300319C3
:100B2F007F30A20272067205500F120B5CC202C216
:100B3F0006C205C2087F30800F300503E9C0E012FE
:100B4F0008AB300503D0E0F9D0E0B541CC30051744
:100B5F007F30B9100C1208AB7F583004077F7880B4
:100B6F0003B908031208AB3002057F2D0208AB7FD3
:100B7F00202008F87F2B2006F322920280CF286EC8
:100B8F00756C6C2900D2011208703001F8C201781F
:100B9F004130D50108F60209162D50434958120865
:100BAF00702403B405004001E4900BA89312089C35
:0D0BBF00743A12089CD2037541040209FB30
:10236B00856134856235856336EBC564FBEAC565EB
:10237B00FAE9C566F97F0978371205DEF60809E92F
:0E238B0070010ADFF4AB64AA65A9660208CCF3
:10083A00FAE6FB0808E6F925F0F618E6CA3AF622BF
:10084A00D083D082F8E4937012740193700DA3A33D
:10085A0093F8740193F5828883E473740293686051
:06086A00EFA3A3A380DF51
:00000001FF
