:1002C3007DE87C03D3EF9400EE64809480401CEDC2
:1002D3001DAA0470011CD39400EA6480948050EF3B
:0B02E3007C037DE8EF1F70DC1E80D95B
:0102EE0022ED
:1002960053B3EF43B410A2AF9200C2AF75C7AA75AD
:1002A600C755439F02A20092AFD2947FC87E001228
:0D02B60002C3C2947FC87E001202C380EC18
:0B02EF00900010EBF0A3EAF0A3E9F090
:1002FA00E4FFFEEEC39D5018900010E0FBA3E0FA65
:10030A00A3E0F98E827583001201832FFF0E80E32A
:01031A0022C0
:10034700EFD39409EF50052430FE80032437FEAF26
:01035700069F
:010358002282
:1001E800EFC39430400CEFD39439500674D02FFFEE
:1001F8008022EFC39441400CEFD394465006EF247D
:10020800C9FF8010EFC39461400AEFD3946650048D
:10021800EF24A9FFEF540FC454F0FFEDC39430400E
:100228000CEDD39439500674D02DFD801EEDC39487
:10023800414008EDD394465002800CEDC3946140D0
:100248000AEDD394665004ED24A9FDED540F4FFF39
:010258002283
:0B025900900013EBF0A3EAF0A3E9F023
:10026400E4FFFE900013E0FBA3E0FAA3E04A4B7026
:100274000122E4FEFF900013E0FBA3E475F00112F9
:1002840001D2A9F0FA12016A60070FBF00010E80C3
:01029400E485
:010295002246
:0B000300900000EBF0A3EAF0A3E9F08E
:10000E00900008EBF0A3EAF0A3E9F0900003E0F90A
:10001E00A3E0FAA3E090000BC9F0A3EAF0A3E9F085
:10002E00900000E0FBA3E0FAA3E04A4B600CA3E0D3
:10003E00FBA3E0FAA3E04A4B70077B007A0079003D
:10004E002290000BE0FBA3E0FAA3E0F9C003C0028C
:10005E00C001900008A3E0FAA3E0F9D3D082D083C8
:10006E00D0E0E99582EA9583403390000BA3E0FA45
:10007E00A3E0F9900006E0FEA3E0FFE92FF9EA3EC7
:10008E00FAC003C002C001A3A3E0FAA3E0F9D3D0E3
:10009E0082D083D0E0E99582EA95834056E49000C1
:1000AE000EF0A3F0900006E0FEA3E0FF90000EE03D
:1000BE00FCA3E0FDC39FEC9E400302015E90000B8B
:1000CE00E0FBA3E0FAA3E0F98D828C83120183FF9B
:1000DE00900008E0FBA3E0FAA3E0F98D828C83EF99
:1000EE001201B090000FE004F0700690000EE004D4
:1000FE00F080B1900006E0FFA3E090000ECFF0A3D9
:10010E00EFF090000EE0FEA3E0FFD39400EE94001B
:10011E00403E90000BE0FBA3E0FAA3E0F9EF24FFD2
:10012E00FFEE34FFFE8F82F583120183FD900008EF
:10013E00E0FBA3E0FAA3E0F98F828E83ED1201B00B
:10014E0090000FE024FFF090000EE034FFF080B23C
:0B015E00900000E0FBA3E0FAA3E0F932
:010169002273
:0300000002031BDD
:10031B0075C7AA75C75575FD5A75C7AA75C75575A3
:10032B00FDA5787FE4F6D8FD9000007FFF7E03E407
:0C033B00F0A3DFFCDEFA758120020296C0
:10016A00BB010689828A83E0225002E722BBFE0293
:09017A00E32289828A83E49322C6
:10018300BB010CE58229F582E5833AF583E0225031
:1001930006E92582F8E622BBFE06E92582F8E2227B
:0D01A300E58229F582E5833AF583E4932295
:1001B000F8BB010DE58229F582E5833AF583E8F085
:1001C000225006E92582C8F622BBFE05E92582C831
:0201D000F22219
:1001D200A3F8E0C5F025F0F0E582158270021583E0
:0601E200E0C838F0E8223D
:00000001FF
