:100EB9005389F043890153B5FB538EF7758AEA7557
:090EC9008CCBD2A9D2AFD28C224D
:030FB800020EB96D
:070F6D00012700022800002B
:100EE80043B10853B2F743B11053B2EF43B12053A3
:030EF800B2DF2244
:100EFB00E4FF2095010F2095034307022095034340
:020F0B000704D9
:010F0D0022C1
:080FA300120EFBEF70027FFF4C
:010FAB002223
:100795007FFF7EFF120FA3BFFF24C3E529942CE53D
:1007A5002894014007E5274430FE8017C3E52994C6
:1007B50002E5289400400CE5274410FE8005EF650E
:1007C5002760098F27E4F528F52980380529E529CB
:1007D50070020528640245287004AE278026E529A5
:1007E500B42C0CE528B40107E5274420FE8015E567
:1007F50029B45E10E528B4010BE5274440FE7528B1
:100805000175292CEEF46011900281E4F0A37402C5
:0B081500F0AF06A3E4F0A3EFF07F01BA
:0108200022B5
:100D6B00EA494B60279000021200B6FFE5F0701CB9
:100D7B00EF24DE600824FE60042403700F900281D0
:0D0D8B00E4F0A37402F0A3E4F0A304F0224E
:100E650053B1FD43B202E490027FF0A3F090027902
:0C0E7500F0A3F0A3F0A3F0A3F0A3F02280
:10082100D390027EE0940090027DE094004026A3E4
:10083100E024FFF090027DE034FFF090027BE0FEC7
:10084100A3E0FFA3E06E7003A3E06F705BFBFDFF0D
:10085100120A49805390027FE07003A3E0F470090B
:10086100FB7D01FF120A498025D3900280E09400AC
:1008710090027FE094004030E4FB7D01FF120A49C1
:10088100900280E024FFF090027FE034FFF09002BC
:100891007BE0FEA3E0FF90027AE02FFF900279E077
:0B08A1003E90027DF0A3EFF07F0A22E2
:100AA700EFD394015052EF75F008A4247FF582E448
:100AB7003402F583E4F0A3EDF0EF75F008A4247990
:100AC700F582E43402F583EAF0A3EBF0EF75F00862
:100AD700A4247BF582E43402F583E525F0A3E5261B
:100AE700F0EF75F008A4247DF582E43402F583E481
:090AF700F0A3F0FBFD120A4922F4
:100A4900EFD394015057EF7009ED6004C29580020D
:100A5900D295EB6048EF75F008A4247FF582E43461
:100A690002F583E4F0A3F0EF75F008A42479F58288
:100A7900E43402F583E4F0A3F0EF75F008A4247BD5
:100A8900F582E43402F583E4F0A3F0EF75F008A4ED
:0E0A9900247DF582E43402F583E4F0A3F0221C
:10091C008F0B8E0A8D098C0853B1BF53B2BF53B1E4
:10092C007F53B27F75985043878053C4F843C420DB
:10093C00AB0BAA0AA909A8087F407E427D0F7C0058
:10094C0012012AC374FF9FFF74FF9EFEE49DFDE419
:10095C009CFC78081201BC8FC6AB0BAA0AA909A88B
:10096C00087F407E427D0F7C0012012AC374FF9FDA
:09097C00FF8FC543C408D2992283
:0A0F8F00D2ACD2AFD2BC43B710229F
:0E0F52007F807E257D007C0012091C020F8F1F
:080003003099FDC2998F99228A
:0B0F7900AE05EF7005AF06120003226A
:080DEF008F0A8B0B8A0C890DA1
:100DF700E4FCECC3950E5017AB0BAA0CA90D8C8223
:0F0E070075830012003FFDAF0A120F790C80E3D4
:010E160022B9
:03000B00020C1FC5
:100C1F00C0E0C0F0C083C082C0D075D000C000C09B
:100C2F0001C002C003C004C005C006C007758AEA30
:100C3F00758CCB120FB2D007D006D005D004D003DD
:100C4F00D002D001D000D0D0D082D083D0F0D0E06D
:010C5F003262
:03002300020B9B32
:100B9B00C0E0C0F0C083C082C0D075D000C000C020
:100BAB0001C002C003C004C005C006C007309807CF
:100BBB00C298AF99120C60D007D006D005D004D0E4
:100BCB0003D002D001D000D0D0D082D083D0F0D0CF
:020BDB00E03206
:0D0F6000120F43900285E0FF120E8180F613
:0A0F9900E4900269F0A3F0A3F02237
:100C600090026BE0C394187480948140037F01224A
:100C7000900269E0C39418748094814002E4F0907B
:100C80000269E0FE04F074512EF582E43401F5832C
:0B0C9000EFF090026BE004F07F002208
:100CD20090026BE070037F012290026AE0C39418D5
:100CE200748094814002E4F090026AE0FF04F074A0
:100CF200512FF582E43401F583E012006C90026B0F
:060D0200E014F07F002266
:060FAC0090026BE0FF2241
:0A0B00008B0A8A0B890C8C0D8D0EF8
:100B0A00E4F514F513F512F511F50FF510C3E51018
:100B1A00950EE50F950D5032AB0AAA0BA90C85105C
:100B2A0082850F8312003FFFE4FCFDFEE5142FF5DA
:100B3A0014EE3513F513ED3512F512EC3511F511E6
:0D0B4A000510E51070C7050F80C3E514FF0E
:010B5700227B
:100F0E00EFD39409EF50052430FE80032437FEAF53
:010F1E0006CC
:010F1F0022AF
:060D98008B0A8A0B890C96
:100D9E00E4FFFEE94A4B700122E4FEFFAB0A050CAC
:100DAE00E50CAA0B7002050B14F912002660070F52
:060DBE00BF00010E80E6FB
:010DC400220C
:06057B008B0E8A0F8910AF
:100581008B168A17891885111985121A85131BE98B
:100591004A4B6008E5134512451170077B007A004C
:1005A100790022D3851A83851B82E5189582E51788
:1005B10095834019E51B2515F9E51A3514FA8A8347
:1005C1008982D3E5189582E51795834038E4F51CB7
:1005D100F51DC3E51D9515E51C95145067AB19AACA
:1005E1001AA91B851D82851C8312003FAB16AA1711
:1005F100A918851D82851C8312007E051DE51D70CD
:10060100D1051C80CD85141C85151DD3E51D9400D5
:10061100E51C9400402EAB19AA1AA91BE51D24FF65
:10062100FFE51C34FFFE8F82F58312003FAB16AA53
:1006310017A9188F828E8312007EE51D151D70CBC0
:0A064100151C80C7AB0EAA0FA9100C
:01064B00228C
:100DC5007DE87C03D3EF9400EE9400401CED1DAA52
:100DD5000470011CD39400EA6480948050EF7C0376
:090DE5007DE8EF1F70DE1E80DBCB
:010DEE0022E2
:100ED20038616856485630775A48765546565046D5
:060EE200312E302E30001D
:040F74004100010037
:100F320090014D74FFF0A3F0A37401F0A3F0020D31
:010F42003B73
:100D3B00E4900120F0A3F0A3F09000027455F0A30F
:100D4B0074AAF0E4A3F0900149F0A3F0900125748C
:100D5B0055F0A374AAF0E4A3F090014BF0A3F0229A
:100348007B017A02796C120CD2EF6003020492905E
:100358000122E0B40900400302048790036AF828E8
:1003680028730203850203960203A60203B9020357
:10037800C80203D702048702041E02045790026CC5
:10038800E06455600302049290012204F022900276
:100398006CE0B4AA079001227402F022800D90024A
:1003A8006CE070079001227403F022E4900122F0BF
:1003B8002290026CE0900005F09001227404F02273
:1003C80090026CE0900006F09001227405F02290F3
:1003D800026CE0900007F0FD900006E0FEED7C0066
:1003E8002400FFEC3EFE900123F0A3EFF0D3941815
:1003F800EE94015011900123E07002A3E0900122D5
:1004080060497407F022E4900122F0900120F0A3E3
:10041800F0900123807190026CE0FF900120E47558
:10042800F0011200A0FC740825F0F58274003CF578
:1004380083EFF0900123E0FEA3E0FFC3900121E0E9
:100448009F900120E09E40429001227408F0227B98
:10045800017A007902900121E02406FD900120E054
:100468003400FC120B0090026DEFF090026CE0B5C6
:100478000703120493E4900122F09001208008E41D
:0A048800900122F0900120F0A3F093
:010492002247
:10049300900005E0B40C00400302057A9004A6F82E
:1004A3002828730204CA0204D20204DA0204DF0217
:1004B30004EC0204F102057A02057A0204F802054B
:1004C3007A0204FF020506120E17E4FF02057712F3
:1004D300000E7F010205777F02020577900008E096
:1004E30090014DF07F0302057790014F8003900147
:1004F300507401F022120C9B7F078078120F207F2B
:030503000A8071FA
:10050600900124E024FEF509900123E034FFF5086C
:1005160045096020900008E0FEA3E07C002400FF6F
:10052600EC3EFE7B017A00790A85080F85091012D8
:0405360006F8803B08
:10053A007F0B120985C2AF7F327E00120DC57DFF87
:10054A00E4FF1201CFA2AF9202C2AF75C7AA75C764
:10055A0055539FFDA20292AFA2AF9202C2AF75C7D6
:0B056A00AA75C755439F80A20292AF04
:050575007F0B12098557
:01057A00225E
:100E170090026E7401F0900001E07B017A00790185
:100E270090026E700CE0FD120E3E9000017401F00E
:060E370022E0FD120E3E58
:010E3D002292
:10000E007BFF7A0E79D2120D98AD077BFF7A0E79AF
:04001E00D2020E3EBE
:100BDD008E0A8F0BE50B450A6037850B82850A83DC
:100BED00EDF0A37401F0850B82850A83A3A3E4F0D5
:100BFD00850B82850A83A3A3A304F0EB60047F0118
:100C0D0080027F00E50B2404F582E4350AF583EFBD
:020C1D00F022C3
:100C9B00E4900278F07E027F6E7B017D01120BDD0A
:100CAB009002787405F0E0246EF582E43402AF8292
:100CBB00FE1B0D120BDD900278E02405F00B7A027F
:070CCB00796EE0FD020E3E10
:100E3E008B0A8A0B890C8D0D8B118A1289137514EE
:100E4E0000850D157B017A01792B12057B90014BE4
:070E5E00E4F0A3E50DF02212
:02098500AB07BE
:1009870090014BA3E0240690026EF0900128EBF053
:1009970090014BE0900129F090014BA3E090012AD0
:1009A700F07B017A01792590026EE0FF04F0EFFDFC
:1009B7007C00120B0090014BE0FCA3E0242BF58296
:1009C70074013CF583EFF07B017A01792590026E83
:0F09D700E0F50EE4FF120DEFE490014BF0A3F0FA
:0109E60022EE
:1009E7009000021200B6FFE5F07056EF146017147E
:1009F70060302402704BE490014FF0FBFAF9FD12CE
:060A07000E3E7F04803862
:100A0D00E490026CF090014DF0900150F07B017A72
:0A0A1D0002796C7D01120E3E7F0588
:020A2700801C31
:100A290090026D7401F090014DF0E4900150F07B5B
:0F0A3900017A02796D7D01120E3E7F051209854B
:010A4800228B
:0B0F840090014EE0FF90014DE06F2255
:0100220022BB
:0F0F43009002867401F0900285F0900287F022F0
:100E8100EF24FE6008047005120E9D8003120B58BA
:0C0E9100900286E0900285F0E4A3F022BD
:100E9D00120F52120FB8120EE8120E65120F9912A0
:0C0EAD000F321200229002867402F02224
:100B5800900287E0900286F0900287E0FF9002867C
:100B6800E0B5072E900281E0FEA3E0FFEE700DEFE6
:100B7800147009E4900281F0A3F080077E027F815F
:100B8800120D08E4900281F0A3F0120348120F84BA
:030B980080C622F2
:100D08008E088F09E50945086028850982850883CA
:100D1800E0FEA3E0FFEE701AEF24FD600C047012F1
:100D2800AA08A9097B01020D6BAA08A9097B01126F
:030D380009E722A6
:060FB20012079502082160
:0606F8008B0C8A0D890E37
:1006FE00A2AF9201C2AF75C7AA75C755439F01A29B
:10070E000192AFA2AF9201C2AF75C7AA75C755438A
:10071E00A501A20192AFEFF5A68EA775AF21E4FF5A
:10072E00FEC3EF9510EE950F5036AB0CAA0DA90E29
:10073E008F828E8312003FF5AEA2AF9201C2AF75CB
:10074E00C7AA75C75543A401A20192AFE59F20E643
:10075E00FB05A6E5A6700205A70FBF00010E80C11E
:10076E00A2AF9201C2AF75C7AA75C75553A5FEA217
:10077E000192AFA2AF9201C2AF75C7AA75C755530A
:06078E009FFEA20192AFE4
:010794002242
:1008AC00A2AF9201C2AF75C7AA75C755439F01A2EB
:1008BC000192AFA2AF9201C2AF75C7AA75C75543DB
:1008CC00A501A20192AFEFF5A68EA775AEFF75AF8D
:1008DC0022A2AF9201C2AF75C7AA75C75543A40136
:1008EC00A20192AFE59F20E6FBA2AF9201C2AF75C9
:1008FC00C7AA75C75553A5FEA20192AFA2AF92012C
:10090C00C2AF75C7AA75C755539FFEA20192AF22FD
:100F2000E4FDED75F080A4FFAEF01208AC0DBD70CD
:010F3000F1CF
:010F3100229D
:1001CF00EFD394044003020347A2AF9201C2AF756D
:1001DF00C7AA75C755439F01A20192AFE4F5A6F5D3
:1001EF00A775AFC0A2AF9201C2AF75C7AA75C755A9
:1001FF0043A401A20192AF85AE0A75A601A2AF92E8
:10020F0001C2AF75C7AA75C75543A401A20192AF2A
:10021F0085AE0B75A602A2AF9201C2AF75C7AA75C4
:10022F00C75543A401A20192AF85AE0C75A603A2D8
:10023F00AF9201C2AF75C7AA75C75543A401A201FA
:10024F0092AF85AE0D75A604A2AF9201C2AF75C76E
:10025F00AA75C75543A401A20192AF85AE0E740AC9
:10026F002FF8A605A2AF9201C2AF75C7AA75C755E1
:10027F0043A504A20192AF75AFE2E4F5A7F5A67509
:10028F00AEFFA2AF9201C2AF75C7AA75C75543A4FF
:10029F0001A20192AF75AFE1850AAEA2AF9201C282
:1002AF00AF75C7AA75C75543A401A20192AF75A632
:1002BF0001850BAEA2AF9201C2AF75C7AA75C75524
:1002CF0043A401A20192AF75A602850CAEA2AF9214
:1002DF0001C2AF75C7AA75C75543A401A20192AF5A
:1002EF0075A603850DAEA2AF9201C2AF75C7AA75F1
:1002FF00C75543A401A20192AF75A604850EAEA205
:10030F00AF9201C2AF75C7AA75C75543A401A20129
:10031F0092AFA2AF9201C2AF75C7AA75C75553A5C9
:10032F00FBA20192AFA2AF9201C2AF75C7AA75C768
:08033F0055539FFEA20192AF8D
:010347002293
:0300000002064CA9
:10064C0075C7AA75C75575FD5A75C7AA75C755756F
:10065C00FDA5787FE4F6D8FD9000007FFF7E03E4D3
:0C066C00F0A3DFFCDEFA7581290206B362
:10067800020F60E493A3F8E493A34003F68001F229
:1006880008DFF48029E493A3F85407240CC8C33383
:10069800C4540F4420C8834004F456800146F6DF52
:1006A800E4800B0102040810204080900F6DE47E66
:1006B800019360BCA3FF543F30E509541FFEE49347
:1006C800A360010ECF54C025E060A840B8E493A30E
:1006D800FAE493A3F8E493A3C8C582C8CAC583CA39
:1006E800F0A3C8C582C8CAC583CADFE9DEE780BEF1
:010F78000078
:10002600BB010689828A83E0225002E722BBFE02D8
:09003600E32289828A83E493220B
:10003F00BB010CE58229F582E5833AF583E0225076
:10004F0006E92582F8E622BBFE06E92582F8E222C0
:0D005F00E58229F582E5833AF583E49322DA
:10006C00BB010689828A83F0225002F722BBFE0173
:02007C00F3226D
:10007E00F8BB010DE58229F582E5833AF583E8F0B8
:10008E00225006E92582C8F622BBFE05E92582C864
:02009E00F2224C
:1000A000A3F8E0C5F025F0F0E58215827002158313
:0600B000E0C838F0E82270
:1000B600BB0110E58229F582E5833AF583E0F5F088
:1000C600A3E0225009E92582F886F008E622BBFE65
:1000D6000AE92582F8E2F5F008E222E5832AF583AB
:0800E600E993F5F0A3E9932270
:1000EE0075F008758200EF2FFFEE33FECD33CDCCC9
:1000FE0033CCC58233C5829BED9AEC99E58298404C
:10010E000CF582EE9BFEED9AFDEC99FC0FD5F0D628
:10011E00E4CEFBE4CDFAE4CCF9A88222B800C1B952
:10012E000059BA002DEC8BF084CFCECDFCE5F0CB90
:10013E00F97818EF2FFFEE33FEED33FDEC33FCEBC9
:10014E0033FB10D703994004EB99FB0FD8E5E4F984
:10015E00FA227818EF2FFFEE33FEED33FDEC33FC71
:10016E00C933C910D7059BE99A4007EC9BFCE99A65
:10017E00F90FD8E0E4C9FAE4CCFB2275F010EF2FAA
:10018E00FFEE33FEED33FDCC33CCC833C810D707AA
:10019E009BEC9AE899400AED9BFDEC9AFCE899F8E5
:0E01AE000FD5F0DAE4CDFBE4CCFAE4C8F92278
:1001BC00E8600FECC313FCED13FDEE13FEEF13FF21
:0301CC00D8F12245
:00000001FF
