:100D530053B1BF53B2BF53B17F53B27F7598504362
:100D63008920438780438E1053C4DFAB07AA06A9AB
:100D730005A8047F407E427D0F7C00120487EF04A8
:090D8300F404F58DD28ED2992200
:100AD80090005E12052C53B1BF53B2BF53B17F5380
:100AE800B27F75985043878053C4F843C420900060
:100AF8005EE0F8A3E0F9A3E0FAA3E0FB7F407E42C2
:100B08007D0F7C00120487C374FF9FFF74FF9EFE55
:100B1800E49DFDE49CFC78081205198FC690005EE0
:100B2800E0F8A3E0F9A3E0FAA3E0FB7F407E427D72
:100B38000F7C00120487C374FF9FFF8FC543C4084E
:030B4800D299221D
:100C290090005E12052C53B1FB53B2FB53B3BF5373
:100C3900B4BF75F85090005EE0F8A3E0F9A3E0FABC
:100C4900A3E0FB7F407E427D0F7C00120487C374C2
:100C5900FF9FFF74FF9EFEE49DFDE49CFC78081253
:100C690005198FC690005EE0F8A3E0F9A3E0FAA3A6
:100C7900E0FB7F407E427D0F7C00120487C374FF36
:0A0C89009FFF8FC543C408D2F92273
:050EBD00D2ACD2AF220F
:100E46007F807E257D007C00120AD87F807E257DEE
:090E5600007C00120C29020EBD03
:080EAD003099FDC2998F9922D2
:080EB50030F9FDC2F98F9A2209
:100E5F00EF14600804700AAF05020EB5AF05120E4D
:020E6F00AD22B2
:100C93009000ADEBF0A3EAF0A3E9F0AE079000AD4E
:100CA300E0FBA3E0FAA3E0F9EA494B60299000AD29
:100CB300E0FBA3E0FAA3E0F91203686019AF069022
:100CC30000ADA3E475F0011203D0A9F0FA12036892
:070CD300FD120E5F80D72225
:0D0D8C009000A9EBF0A3EAF0A3E9F0AE0798
:100D9900E4FC9000ACE0FFECC39F501CAF06900050
:100DA900A9E0FBA3E0FAA3E0F98C827583001203A2
:080DB90081FD120E5F0C80DACF
:010DC100220F
:05094300900096EFF0AA
:10094800EA494B6005E0FF120C93E49000A0F09098
:10095800009DE0FF9000A0E0FEC39F506790009AC2
:10096800E0FBA3E0FAA3E0F98E827583001203810D
:10097800C4540FFF120E839000A1EFF090009AE08C
:10098800FBA3E0FAA3E0F99000A0E0F582758300EC
:10099800120381540FFF120E83AE07900096E0FFFA
:1009A8009000A1E0FD120E5F900096E0FFAD0612E8
:1009B8000E5FE0FF90009EE0FD120E5F9000A0E049
:1009C80004F0808B90009FE06011900096E0FF7D1E
:0B09D8000D120E5FE0FF7D0A120E5FA3
:0109E30022F1
:100E710066617374206D6F64652073746172740DA3
:020E81000A0065
:100DC2007DE87C03D3EF9400EE64809480401CEDB8
:100DD2001DAA0470011CD39400EA6480948050EF31
:0B0DE2007C037DE8EF1F70DC1E80D951
:010DED0022E3
:1006F700A2AF9209C2AF75C7AA75C755439F01A29A
:100707000992AFE4F5A6F5A775AFC0A2AF9209C2EB
:10071700AF75C7AA75C75543A401A20992AFAFAE7B
:1007270075A601A2AF9209C2AF75C7AA75C755438F
:10073700A401A20992AFAEAE75A602A2AF9209C2FA
:10074700AF75C7AA75C75543A401A20992AFADAE4D
:1007570075A603A2AF9209C2AF75C7AA75C755435D
:10076700A401A20992AFACAE75A604A2AF9209C2CA
:10077700AF75C7AA75C75543A401A20992AFABAE1F
:10078700A2AF9209C2AF75C7AA75C75543A504A200
:100797000992AF75AFE2F5A7F5A675AEFFA2AF92C6
:1007A70009C2AF75C7AA75C75543A401A20992AF7D
:1007B70075AFE18FAEA2AF9209C2AF75C7AA75C771
:1007C7005543A401A20992AF75A601AF068FAEA249
:1007D700AF9209C2AF75C7AA75C75543A401A2094D
:1007E70092AF75A602AF058FAEA2AF9209C2AF75E1
:1007F700C7AA75C75543A401A20992AF75A603AF4F
:10080700048FAEA2AF9209C2AF75C7AA75C7554389
:10081700A401A20992AF75A60475AEFFA2AF920913
:10082700C2AF75C7AA75C75543A401A20992AFA263
:10083700AF9209C2AF75C7AA75C75553A5FBA209E1
:1008470092AFA2AF9209C2AF75C7AA75C755539F9A
:05085700FEA20992AFB2
:01085C002279
:100D170053B3EF43B410A2AF9209C2AF75C7AA7518
:100D2700C755439F02A20992AF1206F7120E467BE0
:100D3700FF7A0E797112006ED2947F327E00120D07
:0C0D4700C2C2947F327E00120DC280EC0C
:100BBC009000B0ECF0A3EDF0A3EBF0EF4E70037FE0
:100BCC0001229000B0E0FCA3E0FD4C70037F0222F8
:100BDC009000B2E0FE70037F0322AA04A9059000E6
:100BEC00007401F0A3EAF0A3E9F0EE75F004A4FFA1
:100BFC009000B1E02FFF9000B0E035F0FAA907901B
:100C0C0000037401F0A3EAF0A3E9F0E4A3F0A3F06D
:0D0C1C00A3F09000B2E0900009F07F0022EC
:1009E4009000B9EAF0A3EBF0EF4E70037F01229080
:1009F4000009E0FF900008E0C39F505C900006E00F
:100A0400C39F4002E4F0AF05900000E0FBA3E0FACE
:100A1400A3E0F9900006E075F004A4F58285F08364
:100A2400EC8FF012041E9000B9E0FCA3E0FD9000EE
:100A340006E075F004A429F9EA35F0FA900002EC16
:100A44008DF012041E900006E004F0C2AF9000087E
:0B0A5400E004F0D2AF7F00227F0222FE
:100A5F00EF4E70037F0122900009E0FF900008E045
:100A6F00C39F5062900006E0C39F4002E4F09000E5
:100A7F00A4E0FEA3E0FF900000E0FBA3E0FAA3E0F8
:100A8F00F9900006E075F004A4F58285F083EE8FEF
:100A9F00F012041E9000A6E0FCA3E0FD900006E01B
:100AAF0075F004A429F9EA35F0FA900002EC8DF004
:100ABF0012041E900006E004F0C2AF900008E0049C
:090ACF00F0D2AF7F00227F022269
:10085D009000BBECF0A3EDF0EF4E6004EF4E700393
:10086D007F01229000BBE07002A3E070037F0222A3
:10087D00900008E0D394005003020940A3E0FF90DC
:10088D000007E09F4002E4F0900000E0FBA3E0FAD7
:10089D00A3E0F9900007E075F004A4F58285F083DC
:1008AD001203E6FF9000BBE0FCA3E0F5828C83E52C
:1008BD00F0F0A3EFF0900007E075F004A4FFE92F2E
:1008CD00F9EA35F0FA9000021203E6FF9000BBE062
:1008DD00FCA3E0F5828C83A3A3E5F0F0A3EFF090E9
:1008ED000000E0FBA3E0FAA3E0F9900007E0FF753C
:1008FD00F004A4F58285F0831203E6FD90000AE56D
:10090D00F0F0A3EDF0EF75F004A4FFE92FF9EA354F
:10091D00F0FA9000021203E6FF90000CE5F0F0A350
:10092D00EFF0900007E004F0C2AFA3E014F0D2AFF7
:06093D007F00227F03226F
:0C0E9500EF4E7002FF22900008E0FF22E8
:0C0EA100EF4E7002FF22900009E0FF22DB
:0B0DEE009000B3EBF0A3EAF0A3E9F0E3
:100DF900E4FFFEEEC39D50189000B3E0FBA3E0FAB8
:100E0900A3E0F98E827583001203812FFF0E80E320
:010E190022B6
:100E8300EFD39409EF50052430FE80032437FEAFDF
:010E93000658
:010E9400223B
:100B4B00EFC39430400CEFD39439500674D02FFF81
:100B5B008022EFC39441400CEFD394465006EF2410
:100B6B00C9FF8010EFC39461400AEFD39466500421
:100B7B00EF24A9FFEF540FC454F0FFEDC3943040A2
:100B8B000CEDD39439500674D02DFD801EEDC3941B
:100B9B00414008EDD394465002800CEDC394614064
:100BAB000AEDD394665004ED24A9FDED540F4FFFCD
:010BBB002217
:0B0CDA009000B6EBF0A3EAF0A3E9F0F5
:100CE500E4FFFE9000B6E0FBA3E0FAA3E04A4B70F8
:100CF5000122E4FEFF9000B6E0FBA3E475F00112CB
:100D050003D0A9F0FA12036860070FBF00010E8037
:010D1500E4F9
:010D160022BA
:0B059000900086EBF0A3EAF0A3E9F076
:10059B0090008EEBF0A3EAF0A3E9F0900089E0F96C
:1005AB00A3E0FAA3E0900091C9F0A3EAF0A3E9F06D
:1005BB00900086E0FBA3E0FAA3E04A4B600CA3E0BB
:1005CB00FBA3E0FAA3E04A4B70077B007A007900AB
:1005DB0022900091E0FBA3E0FAA3E0F9C003C00274
:1005EB00C00190008EA3E0FAA3E0F9D3D082D083B0
:1005FB00D0E0E99582EA95834033900091A3E0FA2D
:10060B00A3E0F990008CE0FEA3E0FFE92FF9EA3EAE
:10061B00FAC003C002C001A3A3E0FAA3E0F9D3D050
:10062B0082D083D0E0E99582EA95834056E490002E
:10063B0094F0A3F090008CE0FEA3E0FF900094E018
:10064B00FCA3E0FDC39FEC9E40030206EB900091E0
:10065B00E0FBA3E0FAA3E0F98D828C83120381FF08
:10066B0090008EE0FBA3E0FAA3E0F98D828C83EF80
:10067B001203AE900095E004F07006900094E00435
:10068B00F080B190008CE0FFA3E0900094CFF0A33A
:10069B00EFF0900094E0FEA3E0FFD39400EE940003
:1006AB00403E900091E0FBA3E0FAA3E0F9EF24FFBA
:1006BB00FFEE34FFFE8F82F583120381FD90008ED7
:1006CB00E0FBA3E0FAA3E0F98F828E83ED1203AE79
:1006DB00900095E024FFF0900094E034FFF080B29E
:0B06EB00900086E0FBA3E0FAA3E0F91A
:0106F60022E1
:03000000020E1AD3
:100E1A0075C7AA75C75575FD5A75C7AA75C7557599
:100E2A00FDA5787FE4F6D8FD9000007FFF7E03E4FD
:0C0E3A00F0A3DFFCDEFA758121020D1729
:10036800BB010689828A83E0225002E722BBFE0293
:09037800E32289828A83E49322C6
:10038100BB010CE58229F582E5833AF583E0225031
:1003910006E92582F8E622BBFE06E92582F8E2227B
:0D03A100E58229F582E5833AF583E4932295
:1003AE00F8BB010DE58229F582E5833AF583E8F085
:1003BE00225006E92582C8F622BBFE05E92582C831
:0203CE00F22219
:1003D000A3F8E0C5F025F0F0E582158270021583E0
:0603E000E0C838F0E8223D
:1003E600BB0110E58229F582E5833AF583E0F5F055
:1003F600A3E0225009E92582F886F008E622BBFE32
:100406000AE92582F8E2F5F008E222E5832AF58377
:08041600E993F5F0A3E993223C
:10041E00F8BB0111E58229F582E5833AF583E8F010
:10042E00E5F0A3F0225009E92582C8F608A6F022CD
:0D043E00BBFE09E92582C8F2E5F008F222B4
:10044B0075F008758200EF2FFFEE33FECD33CDCC68
:10045B0033CCC58233C5829BED9AEC99E5829840EB
:10046B000CF582EE9BFEED9AFDEC99FC0FD5F0D6C8
:10047B00E4CEFBE4CDFAE4CCF9A88222B800C1B9F2
:10048B000059BA002DEC8BF084CFCECDFCE5F0CB30
:10049B00F97818EF2FFFEE33FEED33FDEC33FCEB69
:1004AB0033FB10D703994004EB99FB0FD8E5E4F924
:1004BB00FA227818EF2FFFEE33FEED33FDEC33FC11
:1004CB00C933C910D7059BE99A4007EC9BFCE99A05
:1004DB00F90FD8E0E4C9FAE4CCFB2275F010EF2F4A
:1004EB00FFEE33FEED33FDCC33CCC833C810D7074A
:1004FB009BEC9AE899400AED9BFDEC9AFCE899F885
:0E050B000FD5F0DAE4CDFBE4CCFAE4C8F92217
:10051900E8600FECC313FCED13FDEE13FEEF13FFC0
:03052900D8F122E4
:0C052C00ECF0A3EDF0A3EEF0A3EFF02242
:10000300E5082461F582E43400F583E005082290D5
:10001300005E300703900061E475F00112054A02A7
:1000230003682000E97F2ED2008018EF540F24903C
:10003300D43440D4FF30040BEF24BFB41A00500370
:100043002461FFE50960021509050CE50C70020542
:100053000B30070E90005EE475F00112054AEF02C3
:100063000538020EAD7403D2078003E4C207F50816
:1000730090005E120561E4F509F50BF50CE50960E6
:10008300077F2012004680F5750AFFC201C200C235
:1000930002C203C205C206C208120012FF700D306D
:1000A30007057F00120057AF0CAE0B22B4255FC2C9
:1000B300D5C204120012FF24D0B40A00501A75F0FE
:1000C3000A780930D50508B6FF0106C6A426F6202E
:1000D300D5047002D20380D924CFB41A00EF5004A0
:1000E300C2E5D204020258D20180C6D20080C0D237
:1000F3000280BCD2D580BAD20580B47F20120046DC
:100103002002077401B5090040F1120003FF120039
:1001130046020080D208D2068095120003FB12002B
:1001230003FA120003F94A4B700679297A037BFF1D
:1001330020022EE509602A7E008E82758300120359
:100143008160060EEE650A70F0C2D5EBC0E0EAC02E
:10015300E0E9C0E0EE12029FD0E0F9D0E0FAD0E08F
:10016300FB120368FF60AAEBC0E0EAC0E0E9C0E06D
:10017300120046D0E02401F9D0E03400FAD0E0FBCD
:10018300E50A0460DCD50AD980877BFF7A02799B74
:10019300D202809C791080027908C206C2088008C6
:1001A300D2D5790A8004790AC2D5E50A047002F52A
:1001B3000AE4FAFDFEFF120003FC7B082001131280
:1001C3000003FD7B1030000A120003FE120003FF40
:1001D3007B20EC3382D592D55013C3E43000069FC5
:1001E300FFE49EFEE42001039DFDE49CFCE4CBF8C8
:1001F300C201EC700CCFCECDCCE824F8F870F380BC
:1002030017C3EF33FFEE33FEED33FDEC33FCEB337B
:10021300FB994002FB0FD8E9EB300105F8D0E0C4AD
:1002230048B201C0E00AEC4D4E4F78207B0070C20B
:10023300EAB50A0040BCC0E01202A1D0F0D0E02031
:100243000104C4C0E0C4B201C0F012002FD0F0D545
:10025300F0EB02008012056A011D5301975800EE6E
:100263004C00EA42019B4F01A34401A3490103430C
:0802730001A955018D46018D22
:10027B0045018D4703495000F22D00F62E01192B35
:10028B0000FA2301172003322A00B24800000111A3
:10029B003F3F3F00790AA2D5200314300509B9105E
:1002AB00020404B9080104A2D5200602500104205F
:1002BB0002689202B509005034C0E07F2030031968
:1002CB007F30A20272067205500F1202F8C202C2F0
:1002DB0006C205C2087F30800F300503E9C0E0126B
:1002EB000046300503D0E0F9D0E0B509CC30051756
:1002FB007F30B9100C1200467F583004077F78808E
:10030B0003B908031200463002057F2D0200467F19
:10031B00202008F87F2B2006F322920280CF286E34
:10032B00756C6C2900D2011200033001F8C2017800
:10033B000930D50108F60200B22D5043495812007E
:10034B00032403B405004001E490034493120037E7
:0D035B00743A120037D203750904020197AD
:10053800BB010689828A83F0225002F722BBFE01A2
:02054800F3229C
:10054A00F8E0FBA3A3E0F925F0F0E582158270023A
:07055A001583E0FA38F022DE
:09056100EBF0A3EAF0A3E9F0229B
:10056A00D083D082F8E4937012740193700DA3A320
:10057A0093F8740193F5828883E473740293686034
:06058A00EFA3A3A380DF34
:00000001FF
